:1000000006308A00042E0000FF00030E8301A100C9
:100010000A08A0008A010408A2007708A300780853
:10002000A4007908A5007A08A60003170D08031399
:10003000A70003170F080313A80003170C080313E6
:10004000A90003170E080313AA00831383128C3030
:100050008400801E2D288C1A4E2822088400230834
:10006000F7002408F8002508F9002608FA002708F8
:1000700003178D000313280803178F0003132908A3
:1000800003178C0003132A0803178E00031320089C
:100090008A00210E8300FF0E7F0E09008A110A12CA
:1000A000B528D732EC31EF3665004336EF396510AD
:1000B0006937A01264000A29E531E534F632641D7F
:1000C000A0127305000052234922A0316F39E53197
:1000D0007417A02B6536E337ED32A11021100A000A
:1000E0005223492220274F2AA0316F39E531741756
:1000F000200500014E346138CD30F425E83075100C
:100100002A00C437E926613A4B34E13AA0110001D4
:10011000D834EE26EF344E346138CD250001C33794
:10012000F232633A20102010201020100001CE3748
:100130007410C337F232633A0001CD30F425E83051
:10014000F5217500CD30F425E830F526EF340001B7
:10015000CD25CD3769226126F53A0001CD30F42551
:10016000E830F521F529E13400008C1EB5281A0885
:10017000EC006C080C1EBA2899004708C70A2D3EEF
:10018000840083136C0880008C128A110A122D28B7
:1001900062308400831300080319DB280630F8005E
:1001A000F701F70BD128F80BD0287B30F700F70BBD
:1001B000D728800BCE2808006918E0280812E1280B
:1001C0000816831608128312E918E8288812E9280D
:1001D00088168316881283126919F0280813F128EB
:1001E0000817831608138312E919F8288813F928C9
:1001F00088178316881300008312081583160811C8
:100200000230F700F70B02290529000083120811BC
:100210008316081183120800EA01831608160030BD
:100220008312081A0130EA048316881600308312FC
:10023000881A0130F7000310F70D7708EA048316D7
:10024000081700308312081B0130F700F70DF70D77
:10025000FC30F7057708EA0483168817003083120C
:10026000881B0130F700F70DF70DF70DF830F70593
:100270007708EA046A08F8000800831608110810D5
:10028000881083120810831608100816881608179D
:1002900088178312881483168810000083120815AB
:1002A00083160811000083120C217808E900081158
:1002B000831608110000831208158316081160299F
:1002C0006129000083120C217808E80008118316C8
:1002D000081108128812081388138312690EF70098
:1002E000F030F70577086804F8007808E800E81FA0
:1002F0007B2983164529E608031D802908108129DA
:1003000008148316081000008312881083168810C2
:10031000000083120811831608118312670EE8008B
:100320000F30E8056808E900DC2067080F39E800AD
:10033000E900DC2008002830DC000C30DD00013052
:10034000DE000630DF000811831608118312081042
:1003500083160810831288108316881008128812DA
:10036000081388130811081088100F308312E20058
:10037000C8200130DB005B08033C031CC7290330A5
:10038000E900DC200530E200C820DB0ABB2902308E
:10039000E900DC200530E200C820DB015B08033CFB
:1003A000031CDE295C305B07840083130008E00037
:1003B000E6016008E7003D21DB0ACE298A110A1216
:1003C0004D2E0B08DC008B13831603178C170C14AF
:1003D0000000000083120313DC1B8B170318192A7B
:1003E00003170C087F390313DC0003170D080313F0
:1003F000DD0003170F080313DE005C080C1EFE2946
:1004000099005D0803178D0003135E0803178F0022
:1004100003130B08DF008B13831603178C170C14C0
:100420000000000083120313DF1B8B17DB0B192A5C
:10043000392A03170C0D0E0D7F390313DC00031747
:100440000D080313DD0003170F080313DE005C081B
:100450000C1E282A99005D0803178D0003135E08FF
:1004600003178F008D0A03198F0A03100313DB0B88
:10047000E1298A110A12652E80080319522ADC012B
:100480000408DB005C10831B5C1400080C1E462A69
:1004900099005B08840083135C188317840A03198E
:1004A000850A3C2A8A110A12692E5C08FA005B0848
:1004B000840083137A1883170008DF005E08FA00AF
:1004C0005D08840083137A18831700085F02031DF8
:1004D000802A5C08FA005B08840083137A1883176B
:1004E0008008031D762A0030F800982A5C08FA007C
:1004F0005B08DB0A0319DC0ADD0A0319DE0A552A48
:100500005C08FA005B08840083135C1883170008FA
:10051000DF005E08FA005D08840083135E1883170D
:1005200000085F020318962AFF30972A0130F8006E
:100530008A110A12742E0B08DB008B138316031723
:100540008C170C140000000083120313DB1B8B17A5
:1005500003170C087F390319F12A0313DB00031773
:100560000D080313DC0003170F080313DD005B08FD
:100570000C1EB82A99005C0803178D0003135D0850
:1005800003178F0003130B08DE008B13831603176A
:100590008C170C140000000083120313DE1B8B1752
:1005A00003170C0D0E0D7F390319F12A0313DB001D
:1005B00003170D080313DC0003170F080313DD00F6
:1005C0005B080C1EE12A99005C0803178D000313D9
:1005D0005D0803178F008D0A03198F0A03139B2AE6
:1005E000031703130800630BF62AF92A4030E400CE
:1005F000FA2AE40101306202E40764088038E50069
:10060000E6016508E7003D2108006108073A031983
:10061000132B0B3A0319182B063A0319202B023A15
:100620000319262B2B2B0130E200E300F322302BA1
:10063000E6010130E7003D210230E200C820302B06
:100640000130E2000230E300F322302BE6011030EB
:10065000E7003D21302B0130E6006108E7003D2135
:1006600008000B08DB008B13831603178C170C1480
:100670000000000083120313DB1B8B1703170C0809
:100680007F390319852B0313DB0003170D080313B0
:10069000DC0003170F080313DD005B08E1000523EE
:1006A0005C0803178D0003135D0803178F00031305
:1006B0000B08DE008B13831603178C170C14000035
:1006C000000083120313DE1B8B1703170C0D0E0D96
:1006D0007F390319852B0313DB0003170D08031360
:1006E000DC0003170F080313DD005B08E10005239E
:1006F0005C0803178D0003135D0803178F008D0A34
:1007000003198F0A0313312B031703130800620820
:10071000F801610203188F2B6108F7009B2BF7018A
:100720000830E300E10DF70D620877020318F700C7
:10073000F80DE30B922B08000C30E1000523053087
:10074000E2000130E300F322513003178D00003046
:100750008F00031331235910590883168700831221
:1007600007140930C800C80803197D2C0330E200C3
:100770000230E300F322553003178D0000308F0064
:10078000031009300313DB000B08DC008B13831606
:1007900003178C170C140000000083120313DC1BDA
:1007A0008B170318FB2B03170C087F390313DC008E
:1007B00003170D080313DD0003170F080313DE00F2
:1007C0005C08E10005235D0803178D0003135E0834
:1007D00003178F0003130B08DF008B138316031717
:1007E0008C170C140000000083120313DF1B8B17FF
:1007F000DB0BFB2B1A2C03170C0D0E0D7F3903138B
:10080000DC0003170D080313DD0003170F080313A3
:10081000DE005C08E10005235D0803178D0003136B
:100820005E0803178F008D0A03198F0A0310031344
:10083000DB0BC42B4808DB001830DC0020305C1ECA
:100840003030DD005B08F700DB1F2E2CF709F70ABC
:100850007708DB002D30DD00DC175C145B08E1005D
:100860006430E20087237708DB0030307807DE0051
:100870005B08E1000A30E200872330307707E000B0
:1008800030307807DF005D08F70030305E02031972
:100890004D2CDC14DC1B5C15612C5D08DE00203067
:1008A000DD0030305F020319592C5C14DC1BDC14B2
:1008B000612C031D5C14031D612C5E08DF002030D9
:1008C000DE005C19682CDC186B2C5C186E2C712C0B
:1008D0005D08E10005235E08E10005235F08E100F3
:1008E00005236008E10005230430DB00FA30E20054
:1008F000C820DB0B762CC803B32B5910590883167C
:1009000087008312071008005912590883168700C0
:1009100083120712D912590883168700831287168B
:10092000D911590883168700831287155911590860
:100930008316870083120715831606168312061A7C
:10094000A52C3730F800722DBF2C83168616831223
:10095000861AAE2C3430F800722DBF2C8316061781
:100960008312061BB72C3130F800722DBF2C831672
:1009700086178312861BBF2C2A30F800722D59125D
:1009800059088316870083120716D912590883164F
:10099000870083128712D9115908831687008312A2
:1009A0008715591159088316870083120715831676
:1009B00006168312061AE02C3830F800722DFA2C35
:1009C000831686168312861AE92C3530F800722DAC
:1009D000FA2C831606178312061BF22C3230F8000D
:1009E000722DFA2C831686178312861BFA2C303050
:1009F000F800722D591259088316870083120716C2
:100A0000D91259088316870083128716D9115908FD
:100A1000831687008312871159115908831687009E
:100A200083120715831606168312061A1B2D3930FA
:100A3000F800722D352D831686168312861A242D02
:100A40003630F800722D352D831606178312061BDB
:100A50002D2D3330F800722D352D83168617831215
:100A6000861B352D2330F800722D59125908831634
:100A7000870083120716D91259088316870083123C
:100A80008716D911590883168700831287155911C3
:100A900059088316870083120711831606168312DE
:100AA000061A562D4130F800722D702D83168616C9
:100AB0008312861A5F2D4230F800722D702D831636
:100AC00006178312061B682D4330F800722D702D17
:100AD000831686178312861B702D4430F800722D02
:100AE000FF30F8000800C80148080F3C031CAD2D7A
:100AF00049304807F800FA010318FA0A7808DB00C1
:100B00007A08DC0084247808DD005D0F882D822DB2
:100B10008424780F882D5D08F8005B088400831317
:100B20005C188317780880004930480784008313D5
:100B30000008233C0319AD2D01304807DB00E2001B
:100B40000230E300F3224930480784008313000891
:100B5000DB00E1000523C80A742D0800C80148081D
:100B60000F3C031CCA2D480803178D0083168C13F5
:100B70000C1483120C080313DB004930480784006F
:100B8000831300085B020319C82D0030F800CC2D38
:100B9000C80AAF2D0130F8000800C80148080F3C12
:100BA000031CDA2D4930480784008313303080005D
:100BB000C80ACE2D0800C80148080F3C031C012EAE
:100BC00049304807840083130008DB000B08F70056
:100BD0008B13480803178D0003135B0803178C0061
:100BE00083168C130C1555308D00AA308D008C1493
:100BF0008C18F82D0C117708831203138B04C80A84
:100C0000DC2D8A110A12192F03081F398300813045
:100C100083169900A6309800903083129800C7017F
:100C2000FF30D90083161F149F141F159F11073022
:100C30009C0083138312AB01AC014130BA004230F7
:100C4000BB004330BC004430BD003130BE00323008
:100C5000BF004630C0004430C1003330C2004230D3
:100C6000C3003530C4003630C500C6013030C9007D
:100C7000CA00CB00CC00CD00CE00CF00D000D10008
:100C8000D200D300D400D500D600D700D800C030A1
:100C90008B0483168C1683129B29FF3083168600E3
:100CA0008113831247080C3C031D882E2D30470703
:100CB0008400831380015B3003178D0000308F00A8
:100CC00003100B300313DB00E1292D308400831364
:100CD0003C2A0A300C1E6A2E9900DC012D30DB0004
:100CE000DE013A30DD00552AF808031D802E6330FE
:100CF00003178D0000308F0003139B229C23872E47
:100D0000703003178D0000308F0003139B22C70142
:100D10000130E200E300F3227A3003178D00003047
:100D20008F00031331230130E2000230E300F3228D
:100D3000813003178D0000308F000313312384248A
:100D40007808DA000230DB009630E200C820DB0BC6
:100D5000A42E5A082A3C031DF22E0C30E100052374
:100D60000130E200E300F322883003178D000030E9
:100D70008F00031331237325AE25780BD72E013056
:100D8000E200E300F3228F3003178D0000308F0064
:100D900003133123CD250430DB00FA30E200C820F4
:100DA000DB0BCD2E0C30E10005239C23F12EAE256C
:100DB000F808031DF12E0C30E10005230130E2009C
:100DC000E300F322973003178D0000308F000313E8
:100DD0003123CD250830DB00FA30E200C820DB0BE0
:100DE000EC2E4A2F5A08233C031D4A2F0C30E100F9
:100DF00005230130E200E300F3229D3003178D004C
:100E000000308F00031331237325AE25780B302F6C
:100E10000C30E10005230130E200E300F322A230B0
:100E200003178D0000308F0003133123CD25732568
:100E3000DB2DCD250C30E10005230130E200E3007D
:100E4000F322A83003178D0000308F0003133123E5
:100E50000830DB00FA30E200C820DB0B2A2F4A2FD3
:100E6000AE25F808031D4A2F0C30E10005230130A0
:100E7000E200E300F322AE3003178D0000308F0054
:100E800003133123CD250830DB00FA30E200C820FF
:080E9000DB0B452F522E63001D
:02400E00723FFF
:00000001FF
;PIC16F877A
;CRC=46AD  CREATED="17-Jun-24 11:51"
